:1000000045C0000060C000005EC000005CC0000091
:100010005AC00000C2C1000012C2000062C200004B
:1000200052C0000050C000004EC000004CC0000094
:100030004AC0000048C0000046C0000044C00000A4
:1000400045C0000040C00000D4C000003CC000001B
:100050003AC0000038C0000036C0000034C00000C4
:1000600032C0000030C000002EC000002CC00000D4
:100070002AC0000028C000004EC1000024C00000BB
:1000800022C0000020C000001EC0000011241FBEBE
:10009000CFEFD0E1DEBFCDBF11E0A0E0B1E0ECE0FA
:1000A000F9E000E00BBF02C007900D92AE30B1073F
:1000B000D9F722E0AEE0B1E001C01D92AF3CB2073B
:1000C000E1F72FD021C49CCF179808951F920F926B
:1000D0000FB60F9211248F939F9386E082BF809179
:1000E00010019091110101969093110180931001DC
:1000F00080910E0190910F01019690930F018093D2
:100100000E019F918F910F900FBE0F901F90189529
:1001100086E082BF83B7846083BF87B7816087BF73
:100120000895DFD025D121D0CFDFF2DF0DD02BD243
:100130002DD080E091E09093CC028093CB02789414
:1001400085E090E031D0FCCF8EB583608EBD8FB559
:1001500082608FBD8EB588618EBD8FB5806A8FBD80
:100160008FEF93E097BD86BD089587B3806687BB08
:10017000E1E6F0E080818F608083E2E6F0E080815C
:10018000807F80838081856080830895BB9A80E42E
:1001900080938B008AE080938A0010928C001092EA
:1001A0008700109286000895181619060CF520E0B5
:1001B00030E0E6E8F0E044EF51E0518340836FEF38
:1001C00073ECA9E061507040A040E1F700C000006E
:1001D000118210826FEF73ECA9E061507040A04073
:1001E000E1F700C000002F5F3F4F8217930729F708
:1001F00008951F920F920FB60F9211240BB60F9213
:100200002F933F934F935F936F937F938F939F931E
:10021000AF93BF93EF93FF93CF93DF931F92CDB72D
:10022000DEB78CB1898389818A3049F52091350107
:1002300030913601C90101969093360180933501C2
:10024000809112019091130148E2429FF001439F77
:10025000F00D1124E95CFE4FE80FF91F1082809128
:100260003501909136016AE070E027D39093360112
:100270008093350110921301109212011CC06091FD
:1002800035017091360180911201909113019C010A
:100290002F5F3F4F3093130120931201498158E2A1
:1002A000569F9001579F300D1124295C3E4FF90154
:1002B000E80FF91F40830F90DF91CF91FF91EF91ED
:1002C000BF91AF919F918F917F916F915F914F916E
:1002D0003F912F910F900BBE0F900FBE0F901F906C
:1002E0001895109290008FEC89B9599AE5E9F0E0E1
:1002F0008081866080838AB188698AB91092C80239
:100300001092C702109236011092350108955D9B3C
:10031000FECF8CB908951F920F920FB60F92112441
:100320000BB60F922F933F934F935F936F937F93EF
:100330008F939F93AF93BF93EF93FF9380919C0014
:100340008093140180911401E2DFFF91EF91BF913E
:10035000AF919F918F917F916F915F914F913F915D
:100360002F910F900BBE0F900FBE0F901F901895FE
:10037000109298008FEC80939900EBE9F0E0808177
:1003800082608083EDE9F0E0808186608083EAE925
:10039000F0E080818869808308951F920F920FB6E4
:1003A0000F9211240BB60F922F933F934F935F93AD
:1003B0006F937F938F939F93AF93BF93CF93DF936D
:1003C000EF93FF930C9B02C014BC24C0C091150195
:1003D000D091160164B570E080E090E07FD120E01C
:1003E00034E244E759E406D220E030E040E053E450
:1003F00001D220E034E244E75BE4D5D020E030E0F5
:1004000048E652E4D0D037D1CC0FDD1FC55DDE4FBA
:1004100079836883FF91EF91DF91CF91BF91AF9185
:100420009F918F917F916F915F914F913F912F910C
:100430000F900BBE0F900FBE0F901F9018951F923C
:100440000F920FB60F9211240BB60F922F933F937A
:100450004F935F936F937F938F939F93AF93BF93CC
:10046000CF93DF93EF93FF930D9B02C014BC24C086
:10047000C0911501D091160164B570E080E090E064
:100480002DD120E034E244E759E4B4D120E030E05B
:1004900040E053E4AFD120E034E244E75BE483D0B2
:1004A00020E030E048E652E47ED0E5D0CC0FDD1FFE
:1004B000CF5DDE4F79836883FF91EF91DF91CF911C
:1004C000BF91AF919F918F917F916F915F914F916C
:1004D0003F912F910F900BBE0F900FBE0F901F906A
:1004E00018951F920F920FB60F9211240BB60F9210
:1004F0002F933F934F935F936F937F938F939F932C
:10050000AF93BF93CF93DF93EF93FF930E9B02C004
:1005100014BC24C0C0911501D091160164B570E0DF
:1005200080E090E0DBD020E034E244E759E462D19F
:1005300020E030E040E053E45DD120E034E244E7E5
:100540005BE431D020E030E048E652E42CD093D098
:10055000CC0FDD1FC95EDE4F79836883FF91EF9179
:10056000DF91CF91BF91AF919F918F917F916F91CB
:100570005F914F913F912F910F900BBE0F900FBE47
:100580000F901F9018958AB387608ABB82B18F78CD
:1005900082B98AB785618ABF85B5836085BD89B711
:1005A000806789BF08950CD0EBC0E3D040F0DAD06B
:1005B00030F021F45F3F19F0CCC0511115C1CFC00C
:1005C000F0D098F39923C9F35523B1F3951B550B3C
:1005D000BB27AA2762177307840738F09F5F5F4F16
:1005E000220F331F441FAA1FA9F333D00E2E3AF057
:1005F000E0E830D091505040E695001CCAF729D071
:10060000FE2F27D0660F771F881FBB1F26173707BF
:100610004807AB07B0E809F0BB0B802DBF01FF27EF
:1006200093585F4F2AF09E3F510568F092C0DCC09E
:100630005F3FECF3983EDCF3869577956795B79529
:10064000F7959F5FC9F7880F911D9695879597F944
:100650000895E1E0660F771F881FBB1F62177307BD
:100660008407BA0720F0621B730B840BBA0BEE1FD2
:1006700088F7E095089504D06894B111B5C0089545
:1006800098D088F09F5790F0B92F9927B751A0F0D4
:10069000D1F0660F771F881F991F1AF0BA95C9F716
:1006A00012C0B13081F09FD0B1E008959CC0672F97
:1006B000782F8827B85F39F0B93FCCF386957795C6
:1006C0006795B395D9F73EF49095809570956195AF
:1006D0007F4F8F4F9F4F0895E89409C097FB3EF4DA
:1006E00090958095709561957F4F8F4F9F4F99237F
:1006F000A9F0F92F96E9BB279395F69587957795FD
:100700006795B795F111F8CFFAF4BB0F11F460FFBC
:100710001BC06F5F7F4F8F4F9F4F16C0882311F014
:1007200096E911C0772321F09EE8872F762F05C028
:10073000662371F096E8862F70E060E02AF09A95C3
:10074000660F771F881FDAF7880F9695879597F9B8
:10075000089597F99F6780E870E060E008959FEF43
:1007600080EC089500240A94161617061806090648
:10077000089500240A941216130614060506089517
:10078000092E0394000C11F4882352F0BB0F40F49F
:10079000BF2B11F460FF04C06F5F7F4F8F4F9F4FDF
:1007A000089557FD9058440F551F59F05F3F71F061
:1007B0004795880F97FB991F61F09F3F79F08795C8
:1007C0000895121613061406551FF2CF4695F1DF51
:1007D00008C0161617061806991FF1CF86957105E1
:1007E000610508940895E894BB2766277727CB0115
:1007F00097F908950BD0C4CFB5DF28F0BADF18F011
:10080000952309F0A6CFABCF1124EECFCADFA0F31A
:10081000959FD1F3950F50E0551F629FF001729F95
:10082000BB27F00DB11D639FAA27F00DB11DAA1FB4
:10083000649F6627B00DA11D661F829F2227B00D01
:10084000A11D621F739FB00DA11D621F839FA00D8C
:10085000611D221F749F3327A00D611D231F849FDC
:10086000600D211D822F762F6A2F11249F57504033
:100870008AF0E1F088234AF0EE0FFF1FBB1F661FCE
:10088000771F881F91505040A9F79E3F510570F087
:1008900060CFAACF5F3FECF3983EDCF38695779567
:1008A0006795B795F795E7959F5FC1F7FE2B880F82
:1008B000911D9695879597F9089597FB072E16F445
:1008C000009406D077FD08D00BD007FC05D03EF48D
:1008D000909581959F4F0895709561957F4F0895EC
:1008E000AA1BBB1B51E107C0AA1FBB1FA617B70756
:1008F00010F0A61BB70B881F991F5A95A9F7809572
:0C0900009095BC01CD010895F894FFCF44
:0E090C00000000020000000087010000000053
:00000001FF
